:020000041A00E0
:10000000008000108D14001A7901001A7B01001A7B
:100010007D01001A7F01001A8101001A0264FF535A
:100020000000000000000000000000008301001A32
:100030008501001A000000008701001A2D27001A10
:10004000BB01001ABB01001ABB01001A000000002E
:10005000BB01001ABB01001ABB01001ABB01001A48
:10006000352B001ABB01001ABB01001ABB01001A94
:100070005D27001A9D27001ADD27001A2128001A83
:10008000BB01001ABB01001ABB01001ABB01001A18
:10009000BB01001ABB01001ABB01001ABB01001A08
:1000A000BD01001ABB01001A6526001A6F26001A4E
:1000B000BB01001ABB01001ABB01001ABB01001AE8
:1000C000BB01001ABB01001ABB01001ABB01001AD8
:1000D000BB01001ABB01001ABB01001ABB01001AC8
:1000E000BB01001ABB01001ABB01001ABB01001AB8
:1000F00000000000BB01001ABB01001ABB01001A7E
:1001000000000000BB01001ABB01001ABB01001A6D
:10011000BB01001A6841001A00000010EC0000004A
:100120006841001A00000810000000006841001A31
:1001300000000020000000006841001A008000203C
:10014000000000006841001A00C00020000000000C
:10015000F00000101406000000000810000000006D
:1001600000000020000000000080002000000000CF
:1001700000C0002000000000FEE7FEE7FEE7FEE70B
:10018000FEE7FEE7FEE7FEE7FEE7002393420AD222
:1001900010B450F8044B41F8044B04339342F8D3A5
:1001A0005DF8044B7047704700238B4204D2002255
:1001B00040F8042B0433F8E77047FEE708B5002049
:1001C00002F0D0F808BDFFFFFFFFFFFFFFFFFFFFBA
:1001D000FFFFFFFFFFFFFFFFFFFFFFFFFFFFFFFF2F
:1001E000FFFFFFFFFFFFFFFFFFFFFFFFFFFFFFFF1F
:1001F000FFFFFFFFFFFFFFFFFFFFFFFFFFFFFFFF0F
:10020000FFFFFFFFFFFFFFFFFFFFFFFFFFFFFFFFFE
:10021000FFFFFFFFFFFFFFFFFFFFFFFFFFFFFFFFEE
:10022000FFFFFFFFFFFFFFFFFFFFFFFFFFFFFFFFDE
:10023000FFFFFFFFFFFFFFFFFFFFFFFFFFFFFFFFCE
:10024000FFFFFFFFFFFFFFFFFFFFFFFFFFFFFFFFBE
:10025000FFFFFFFFFFFFFFFFFFFFFFFFFFFFFFFFAE
:10026000FFFFFFFFFFFFFFFFFFFFFFFFFFFFFFFF9E
:10027000FFFFFFFFFFFFFFFFFFFFFFFFFFFFFFFF8E
:10028000FFFFFFFFFFFFFFFFFFFFFFFFFFFFFFFF7E
:10029000FFFFFFFFFFFFFFFFFFFFFFFFFFFFFFFF6E
:1002A000FFFFFFFFFFFFFFFFFFFFFFFFFFFFFFFF5E
:1002B000FFFFFFFFFFFFFFFFFFFFFFFFFFFFFFFF4E
:1002C000FFFFFFFFFFFFFFFFFFFFFFFFFFFFFFFF3E
:1002D000FFFFFFFFFFFFFFFFFFFFFFFFFFFFFFFF2E
:1002E000FFFFFFFFFFFFFFFFFFFFFFFFFFFFFFFF1E
:1002F000FFFFFFFFFFFFFFFFFFFFFFFFFFFFFFFF0E
:100300000023037143718371C3710372437283725B
:1003100080F8383080F8393080F83A3080F83B3057
:1003200080F83C3080F83D3080F83E3080F83F3037
:1003300080F8403080F8413080F8423080F8433017
:1003400080F8443080F8453080F8463080F84730F7
:100350007047002380F8343070470A2383700223EB
:10036000C364704700230370C364704700230370A5
:10037000C3647047002383700223C364704708B5C9
:10038000FFF7EBFF08BD08B5FFF7F9FF08BD08460A
:100390007047016042600023C3608360036170475F
:1003A0000069704738B504460D46FFF7F9FF6368EA
:1003B000984211D02268E368D554E2686368013B33
:1003C0009A4206DA0132E260236901332361012097
:1003D00038BD0023E360F7E70020F9E701707047BC
:1003E00010B582B00446FFF7DBFF002811DD22685C
:1003F000A368D25C8DF804206268013A93420DDA5A
:100400000133A3602369013B23619DF8040002B01E
:1004100010BD002101A8FFF7E1FFF6E70023A3606C
:10042000F0E710B582B0044601A8FFF7D7FF9DF8AA
:1004300004102046FFF7B6FF02B010BD0B78013B59
:10044000172B65D8DFE803F00C0F1215181B1E21BF
:1004500025292D3135393D4145494D5155595D616C
:100460000123037170470123437170470123837196
:1004700070470123C3717047012303727047012342
:1004800043727047012383727047012380F8343030
:100490007047012380F838307047012380F83930E5
:1004A0007047012380F83A307047012380F83B30D1
:1004B0007047012380F83C307047012380F83D30BD
:1004C0007047012380F83E307047012380F83F30A9
:1004D0007047012380F840307047012380F8413095
:1004E0007047012380F842307047012380F8433081
:1004F0007047012380F844307047012380F845306D
:100500007047012380F846307047012380F8473058
:10051000704730B583B00446002101A8FFF75EFFA5
:1005200004F150052846FFF73BFF00280BDC783428
:100530002046FFF735FF00280ADD2046FFF750FF71
:100540008DF8040004E02846FFF74AFF8DF8040008
:100550009DF8040003B030BD10B582B00446FFF72B
:10056000D8FF8DF8040001A92046FFF767FF02B00D
:1005700010BD00F138038B423CD000F139038B42AF
:100580003AD000F13A038B4238D000F13B038B4262
:1005900036D000F13C038B4234D000F13D038B4256
:1005A00032D000F13E038B4230D000F13F038B424A
:1005B0002ED000F140038B422CD000F141038B423E
:1005C0002AD000F142038B4228D000F143038B4232
:1005D00026D000F144038B4224D000F145038B4226
:1005E00022D000F146038B4220D0473088421FD0F2
:1005F00000207047092070470A2070470B20704781
:100600000C2070470D2070470E2070470F20704758
:100610001020704711207047122070471320704738
:100620001420704715207047162070471720704718
:100630001820704708B500F01DFE08BD10B504462F
:10064000FFF7F8FF012323700023E36410BD08B512
:10065000FFF7F4FF08BD08B5FFF7F9FF08BD10B5B7
:1006600004460023012200F1400100F025FE4FF076
:10067000FF3363620023A362E362236310BD10B5FE
:100680000446FFF7ECFF072363700123E36410BD0A
:1006900008B5FFF7F4FF08BD08B5FFF7F9FF08BD7F
:1006A00010B504460023032200F13D0100F004FED2
:1006B0000023012204F13E01204600F0FDFD00234D
:1006C000012204F13F01204600F0F6FDA36A013348
:1006D000A36210BD10B50446FFF7E2FF0623637066
:1006E0000123E36410BD10B50446002340F2E53257
:1006F00000F13A0100F0E0FD00234FF47A7204F1BA
:100700003B01204600F0D8FD0023012204F13C010A
:10071000204600F0D1FD636A0133636210BD10B55D
:100720000446FFF7E0FF052363700123E36410BD77
:1007300010B504460023012200F1410100F0BCFD88
:100740000023022204F14201204600F0B5FD0023FF
:10075000012204F14301204600F0AEFDE36A0133BB
:10076000E36210BD10B50446FFF7E2FF0823637093
:100770000123E36410BD10B504460023012200F1FB
:10078000440100F099FD0023012204F145012046B7
:1007900000F092FD0023012204F14601204600F002
:1007A0008BFD236B0133236310BD10B50446FFF7A7
:1007B000E2FF092363700123E36410BD08B500F173
:1007C000380100F087FD08BD08B500220270C26440
:1007D000FFF7F4FF08BD08B500F1390100F07AFD1C
:1007E00008BD08B500220270C264FFF7F4FF08BD1F
:1007F00010B5044600F13A0100F06CFD04F13B0134
:10080000204600F067FD04F13C01204600F062FD47
:1008100010BD08B5002242700122C264FFF7E8FF54
:1008200008BD10B50446081E00DD10BD94F83A302E
:1008300013B1636A3B2B24D094F83B3013B1636A45
:100840003A2B26DD637963BB94F83C30002BECD067
:10085000E268E36A9A42E8D12269A36A9A42E4D143
:100860006269636A9A42E0D12046FFF7D2FF08210D
:1008700004F15000FFF7D5FD2046FFF700FF0120EF
:10088000D3E72046FFF7C5FF2046FFF723FF0120EF
:10089000CBE72046FFF7BDFF2046FFF740FF0120D2
:1008A000C3E72046FFF7B5FF2046FFF7E8FE01202B
:1008B000BBE710B5044600F13D0100F00BFD04F16B
:1008C0003E01204600F006FD04F13F01204600F005
:1008D00001FD10BD08B5002242700122C264FFF77D
:1008E000E8FF08BD10B50446081E00DD10BD94F8F1
:1008F0003D3013B1A36A3B2B24DD94F83E3013B195
:10090000A36A3C2B29D063798BBB94F83F30002B32
:10091000ECD0E268E36A9A42E8D12269A36A9A427B
:10092000E4D16269636A9A42E0D12046FFF7D2FFC0
:10093000082104F15000FFF774FD2046FFF79FFEE9
:100940000120D3E72046FFF7C5FF4FF0FF33636276
:100950002046FFF7E4FE0120C8E72046FFF7BAFF74
:10096000002363622046FFF7FDFE0120BEE720461C
:10097000FFF7B0FF2046FFF782FE0120B6E708B57B
:1009800000F1400100F0A6FC08BD08B5002242704D
:100990000122C264FFF7F3FF08BD10B50446081E2C
:1009A00000DD10BD94F84030002BFAD02046FFF750
:1009B000ECFF2046FFF7B3FE0120F2E710B5044636
:1009C00000F1410100F086FC04F14201204600F0F4
:1009D00081FC04F14301204600F07CFC10BD08B509
:1009E000002242700122C264FFF7E8FF08BD10B583
:1009F0000446081E00DD10BD94F8413013B1E36ACF
:100A0000182B25D094F8423013B1E36A172B2ADD56
:100A10006379002B34D194F84330002BEBD0E2689B
:100A2000E36A9A42E7D12269A36A9A42E3D16269F2
:100A3000636A9A42DFD12046FFF7D1FF082104F113
:100A40005000FFF7EEFC2046FFF719FE0120D2E729
:100A50002046FFF7C4FF0023A36263622046FFF72E
:100A6000A4FE0120C7E72046FFF7B9FF0023A362D9
:100A70004FF0FF3363622046FFF751FE0120BAE7D3
:100A80002046FFF7ACFF2046FFF7F9FD0120B2E753
:100A900010B5044600F1440100F01CFC04F14501CE
:100AA000204600F017FC04F14601204600F012FC3D
:100AB00010BD08B5002242700122C264FFF7E8FFB2
:100AC00008BD10B50446081E00DD10BD94F8443082
:100AD0001BB1236BB3F5B67F26DD94F8453023B107
:100AE000226B40F26D139A422CD0637993BB94F839
:100AF0004630002BE9D0E268E36A9A42E5D12269E8
:100B0000A36A9A42E1D16269636A9A42DDD12046C2
:100B1000FFF7CFFF082104F15000FFF782FC2046C9
:100B2000FFF7ADFD0120D0E72046FFF7C2FF00230D
:100B3000E362A3624FF0FF3363622046FFF7EFFDED
:100B40000120C2E72046FFF7B4FF2046FFF797FDDC
:100B50000120BAE72046FFF7ACFF2046FFF78FFDE4
:100B60000120B2E708B500F1470100F0B3FB08BD72
:100B700008B5002282700222C264FFF7F3FF08BDAD
:100B800038B505460C46012903DD0846A0420CD0C5
:100B900038BD90F847300BB90846F7E7FFF7E8FF94
:100BA0002846FFF7DAFB0220F0E721462846FFF748
:100BB000EEFBEDE710B504468269002302EB8202EA
:100BC00000F1380100F078FB204600F045FB10BD35
:100BD00010B50446FFF7EEFF022323700023E36401
:100BE00010BD10B5044600234FF4FA7200F139012C
:100BF00000F062FB204600F04EFB10BD10B504462D
:100C0000FFF7EFFF042323700023E36410BD10B54A
:100C10000446081E00DB10BD237993B96379C3B97C
:100C200094F83430EBB9237A002BF4D02046FFF748
:100C300099FB012384F820302046FFF7DFFF0020D6
:100C4000E9E72046FFF78EFB2046FFF7C1FF0020B3
:100C5000E1E72046FFF786FB2046FFF7B9FF0020BB
:100C6000D9E72046FFF77EFB2046FFF7B1FF0020C3
:100C7000D1E710B5044600F0FDFA0121204600F04E
:100C800007FB10BD10B50446FFF7F3FF03232370E5
:100C90000023E36410BD10B50446081E00DB10BD40
:100CA00094F8383013B194F8203093B1A379C3B9D4
:100CB0002379F3B9A37A13B194F820200ABB002B4F
:100CC000EDD02046FFF780FD2046FFF7B7FC00205F
:100CD000E5E72046FFF778FD2046FFF7AFFC002050
:100CE000DDE72046FFF770FD2046FFF7CBFF002031
:100CF000D5E72046FFF768FD2046FFF769FF002093
:100D0000CDE72046FFF760FD204600F0B3FA20460D
:100D1000FFF774FF0020C2E710B50446081E00DB91
:100D200010BD237973B96379002BF9D02046FFF702
:100D30001DFB0021204600F0ABFA2046FFF77EFCA9
:100D40000020EDE72046FFF711FB0021204600F0D0
:100D50009FFA2046FFF772FC0020E1E738B5044611
:100D6000081E00DB38BD637A83B994F83930DBB9EB
:100D70002379002BF6D02046FFF733FD204600F004
:100D800095FA2046FFF724FF0020EBE72046FFF707
:100D900028FD204600F08AFA002584F820502046DD
:100DA000FFF74CFC2846DDE72046FFF71AFD2046FA
:100DB000FFF724FF0020D5E710B5044600230122E9
:100DC00000F1470100F078FA6169204600F061FA0D
:100DD000606110BD10B50446FFF7EEFF0B23A37052
:100DE0000223E36410BD38B505460C46012903DD36
:100DF0000846A0420BD038BDC3790BB90846F8E7C6
:100E0000FFF7B8FA2846FFF7E5FF0220F1E7214691
:100E10002846FFF7BCFAEEE710B504460023C3648A
:100E20000378013B032B1DD8DFE803F0020D1217F6
:100E30004FF0FF31FFF7EBFEE36C002B15DDE36CA9
:100E4000012B34DD10BD4FF0FF31FFF724FFF3E736
:100E50004FF0FF31FFF760FFEEE74FF0FF31FFF794
:100E60007DFFE9E74FF0FF30E6E76378053B042BB1
:100E7000E5D8DFE803F003080D121700014620460D
:100E8000FFF7CFFCDBE701462046FFF72BFDD6E757
:100E900001462046FFF781FDD1E701462046FFF7D6
:100EA000A6FDCCE701462046FFF70BFEC7E7A37877
:100EB0000A2B06D00B2BC5D101462046FFF760FE5A
:100EC000C0E701462046FFF78EFFBBE790F84830A9
:100ED00003B1704710B50446012380F84830FFF78E
:100EE0003BFB2046FFF798FF2046FFF709FA204614
:100EF000FFF72FFA2046FFF72FFB2379002BF0D1C5
:100F00006379002BEDD1A379002BEAD1E379002B93
:100F1000E7D1237A002BE4D1637A002BE1D1A37AC5
:100F2000002BDED194F83430002BDAD194F838302D
:100F3000002BD6D194F83930002BD2D194F83A3026
:100F4000002BCED194F83B30002BCAD194F83C3022
:100F5000002BC6D194F83D30002BC2D194F83E301E
:100F6000002BBED194F83F30002BBAD194F840301A
:100F7000002BB6D194F84130002BB2D194F8423016
:100F8000002BAED194F84330002BAAD194F8443012
:100F9000002BA6D194F84530002BA2D194F846300E
:100FA000002B9ED194F84730002B9AD184F848301A
:100FB00010BD10B504460023022B03DC0022E254CE
:100FC0000133F9E72046FFF79BF92046FFF7C1F907
:100FD0000023E360236106226261C822A2614FF40C
:100FE0007A72E26184F820306362A362E362236371
:100FF00084F84830142204F1640104F15000FFF732
:10100000C8F9142204F18C0104F17800FFF7C1F94A
:1010100010BD90F8483003B1704710B50446012365
:1010200080F84830FFF717FB2046FFF735FB2046D6
:10103000FFF7A9F9002384F8483010BD00F1380308
:101040008B4203DC00F148038B4200D8704710B597
:101050000446FFF78EFA014604F17800FFF7E1F944
:101060002046FFF733FF10BD10B50446012178304C
:10107000FFF7D7F92046FFF729FF10BD10B504464A
:1010800002217830FFF7CDF92046FFF71FFF10BD92
:1010900010B5044605217830FFF7C3F92046FFF765
:1010A00015FF10BD10B5044606217830FFF7B9F9D9
:1010B0002046FFF70BFF10BD10B50446072178301E
:1010C000FFF7AFF92046FFF701FF10BD30B4002451
:1010D0008C420AD225014219002343515360936088
:1010E0001373537393730134F2E730BC704770B4D9
:1010F00000248C4211D22501461945590DB1013405
:10110000F7E77360B36032609DF80C3033730123EE
:1011100073730023B373104600E0002070BC704767
:1011200000238B4214D230B41C0105190459944297
:1011300004D001338B42F7D3002007E000232B605B
:101140006B60AB602B736B73AB73104630BC704736
:101150000020704700238B4211D230B402E00133EB
:101160008B4209D21C01051904599442F7D1AC7B7A
:10117000002CF4D0012000E0002030BC704700209B
:10118000704700238B420DD230B41C01051904595D
:10119000944203D001338B42F7D301E00023AB73B9
:1011A00030BC7047704700238B421DD210B406E05C
:1011B000002454730124947301338B4211D200EB49
:1011C0000312547B002CF7D094680CB1013C94605E
:1011D0009468002CF0D1147B002CE9D05468946002
:1011E000E8E75DF8044B70477047FFFF014B0122B1
:1011F0001A707047F000001010B54FF480620021A3
:10120000114802F052F80024002001F0C1F90E4B01
:101210001855013418B140F2FE339C42F4DD0A4CFB
:1012200021460A4802F0CEFB0949204602F025FC7F
:1012300010B10848FFF718FF4FF480620021024800
:1012400002F033F810BD00BF94010010F43D001A05
:10125000103E001AF400001008B50121282001F00A
:10126000F1FB00210E2001F0EDFB01211E2001F019
:10127000E9FB08BD08B50021282001F0E3FB0021AF
:101280000E2001F0DFFB00211E2001F0DBFB08BD7A
:1012900070470846704708B52D2001F017FCB0FADA
:1012A00080F149092D2001F0CDFB08BD08B50021D2
:1012B0002D2001F0C7FB08BD00B583B00093134695
:1012C0000A4610210248FFF712FF03B05DF804FB45
:1012D000F005001008B50A4610210248FFF720FF6C
:1012E00008BD00BFF005001038B50024254600E019
:1012F0000134032C0BD804F1240040B201F0E6FBCA
:101300000028F5D10123A3401D43EDB2F0E72846A4
:1013100038BDFFFFF8B501F01BFC504C4FF4E13233
:101320000021204601F04EFC4D49207801F052FC8E
:10133000207801F053FC00234A4A1946184601F070
:10134000BDF80121002001F071F80120002101F019
:10135000AFF90021444801F08FF910214348FFF70D
:10136000B5FE434C2046FFF724FE2046FFF751FE12
:1013700001210E2001F090FA01211E2001F08CFACB
:10138000002430E0394D2701E9593948FFF756FE6E
:10139000EA5910212846FFF7F4FE01340F2C08D833
:1013A00032482301C2581021FFF7D4FE0028F4D0A0
:1013B000E8E7FFF799FF0446012804D02D492E489D
:1013C00002F05BFB10B12A48FFF74EFE284B1B785A
:1013D000022B15D00CB9012E19D0022C1BD0042CD5
:1013E0001FD0082C2BD02646244B1B78002BFBD07B
:1013F0000024224B1C7010211C48FFF7D4FECDE7BF
:101400004FF4806200211C4801F04FFFE2E71848CA
:10141000FFF752FEE1E7002EE1D11548FFF72EFE5F
:10142000DDE7002EDDD10D4D1549287801F0D2FB06
:10143000287801F0D3FB0E48FFF72AFED1E7002EF3
:10144000D1D1064D0F49287801F0C4FB287801F06E
:10145000C5FB0748FFF726FEC5E700BFF1000010F7
:10146000A83D001AF911001AED11001AF00500103C
:10147000F4000010103E001A94010010F00000105B
:10148000D03D001AE03D001A7047FFFF10B572B65C
:10149000194B1A4A1A600433194A1A60002305E0EE
:1014A000184A4FF0FF3142F823100133072BF7D9C8
:1014B00062B6154B07E003F10C049A685968186886
:1014C000FEF763FE2346114A9342F4D306E01C461E
:1014D000596854F8080BFEF767FE23460C4A9342FE
:1014E000F5D300F015FF01F0B9FEFFF7CDFFFFF7D0
:1014F00011FF30BFFDE700BF003105400010DF10D5
:10150000FFF7DF0180E200E01401001A5001001A29
:101510007801001A70477047092303604FF0FF30CD
:101520007047582303604FF0FF307047022904D9F9
:10153000092303604FF0FF307047012070475823A4
:1015400003604FF0FF30704702291FD82DE9F041AA
:101550001D46174606460024AC4211D200F02FF972
:10156000B0F1FF3FF8D004F1010838550D2803D041
:101570000A2801D04446EFE700F021F9404603E095
:10158000132333604FF0FF30BDE8F0811323036075
:101590004FF0FF30704702290CD870B51D46164633
:1015A0000024AC4204D2305D00F004F90134F8E7C5
:1015B000284670BD132303604FF0FF307047FFFFD4
:1015C000054B1B6823B1044B186801441960704730
:1015D000014B024A1A60F6E7940500100407001058
:1015E0000022052A19D870B40C4911F8125001EBE9
:1015F00042014C780A4B05F5006653F8261001208D
:10160000A040014343F8261003EB45130021195570
:101610000132052AE8D970BC70477047243E001A91
:1016200000400F400023032B16D830B40B4911F8AB
:10163000132001EB43014D78094C02F5006254F888
:1016400022100120A84021EA000144F822100133B1
:10165000032BEBD930BC7047704700BF1C3E001A0B
:1016600000400F400023082B16D830B40B4911F866
:10167000132001EB43014D78094C02F5006254F848
:1016800022100120A84021EA000144F82210013371
:10169000082BEBD930BC7047704700BF303E001AB2
:1016A00000400F4010B582B0084C6946204600F05B
:1016B000D9F9074A6946204600F0F4F90022694644
:1016C000204600F008FA02B010BD00BF00300E4006
:1016D000801A060010B50B4C204600F0BFFD636871
:1016E00023F004036360236823F0FF0343F0070340
:1016F00023600549204600F092FD636843F0020331
:10170000636010BD00500C40A086010008B50020A9
:1017100000F0D0FD044B40F60802C3F8842C0349C6
:10172000002000F0D9FD08BD0060084040420F00D5
:1017300010B5074C204600F0B9F84FF4E1312046CF
:1017400000F0FEF80323E3600123E36510BD00BF52
:1017500000100C40034B5B6913F0200FFAD0014BD3
:101760001860704700100C40054B5B6913F0010FC7
:1017700003D0034B1868C0B270474FF0FF3070477A
:1017800000100C4008B5FFF7D3FF094800F07AFCC1
:10179000FFF768FFFFF786FFFFF79CFFFFF7B6FF35
:1017A000FFF71EFFFFF73EFF00F09CF908BD00BFEA
:1017B00000400F4008B5C0B2FFF7CCFF08BD08B528
:1017C000FFF7D2FF08BD08B5FFF7B2FF08BDFFFF66
:1017D00000231C2B12D810B4094A02EB830112F823
:1017E00023404A78488802EB4412064941F8220017
:1017F00001331C2BF0D95DF8044B7047704700BFD4
:101800004C3E001A0060084010B5174AD2F820314B
:1018100023F4704343F41043C2F82031D2F824314A
:1018200023F4704343F41043C2F8243101220F49DA
:10183000062000F029FC00244CB10B4B5A6822F022
:101840000C025A605A6842F003025A6010BD084800
:1018500000EB840101238A78497810F8240000F015
:101860006DFB0134E8E700BF0030044000CB280CDA
:10187000483E001A08B5FFF7ABFFFFF7C5FF08BDEC
:10188000094B984209D003F58053984207D0A3F53D
:101890008023984205D00020704702207047032023
:1018A00070470120704700BF00100C4030B583B076
:1018B0000446FFF7E5FF01231A4619460E4D35F899
:1018C000100000F081FB0723A3600023E365636041
:1018D000E3602362E36463652365084B9C4206D0A2
:1018E0000323E3601023A362019B03B030BD0023F8
:1018F0002361A3690193F3E7C83E001A0020084062
:1019000038B505460C46FFF7BBFF0C4B33F810000B
:1019100000F092FB2301B0FBF3F3D9B2EA6842F086
:101920008002EA602960C3F307226A60EA6822F055
:101930008002EA60B0FBF3F0000938BDC03E001A37
:101940002DE9F04F83B001908846FFF799FF324BA5
:1019500033F8100000F070FB06464FF0FF3701240B
:101960004FF0000BA246D9462AE042424B1C17E03A
:101970000AB31746AB46A24699460135AC421ED97A
:1019800033093007A4FB000104FB0311621908FBB3
:1019900002F2002301F02AF902460B460028E4DB9C
:1019A0009742EAD3002BE8D0190CE6D1022BDFD8FE
:1019B000002DDDD0E1E71746AB46A246994601343B
:1019C0001FB10F2C01D80025D8E7B9F1000F1ED0A8
:1019D000019A1146D36843F08003D3605FFA89F31C
:1019E0001360C9F307235360D36823F08003D360E7
:1019F0004FEA0A13DBB20BF00F0213438B62330979
:101A00000AFB03F3DA4409FB0AF9B3FBF9F9484688
:101A100003B0BDE8F08F00BFC03E001A034B9842F0
:101A200001D0032070470420704700BF00400E40E3
:101A300070B50D4614461E46FFF7F0FF00F0FCFAA5
:101A400055B104FB06F404EB40006400B0FBF4F075
:101A5000C0B20138C0B270BD04EB840304EB430490
:101A6000F1E7FFFF38B505460C46FFF7D7FF012326
:101A70001A46194600F0A8FA0021E960084A2260D7
:101A8000217161710B232846FFF7D2FF000240F459
:101A900000132079400400F460201843286038BD0A
:101AA000801A060070B505460E46046824F46F24BB
:101AB00024F470640A600B79C3F10B03DBB249793B
:101AC000FFF7B6FF44EA002033795B0403F4602398
:101AD00003432B6070BD08B50A710A68FFF7E2FF87
:101AE00008BDFFFF08B5692000F0A6FA014B186099
:101AF00008BD00BFF0060010F0B40B6813F0800FB3
:101B000002D023F040030B60074601253AE04B6901
:101B100003FB02F3B3FBF5F31CE01C46B0EB040C33
:101B200027D4674506D98D60771CCF600A618C6128
:101B3000CB6167460132B2F5807F1DDC0C6814F082
:101B4000400FE4D0731C02FA03FC4B6903FB0CF357
:101B5000B3FBF5F3DFF838C06345EBD9DFF834C0E9
:101B6000634509D814F0800FD7D1741C23FA04F40C
:101B7000D4E7CCF1000CD4E70136032E01DC0122BE
:101B8000D9E70135042D01DC0026F6E7F0BC7047EB
:101B9000FF5E4C0900D01213F0B599B005460C4613
:101BA0005C22002101A801F080FB8023009363697F
:101BB000059323798DF8043069462846FFF79CFF8A
:101BC000069BAB4227D0EB1A2ED41E46109B23F067
:101BD000400310936369159323798DF8443010A95D
:101BE0002846FFF789FF169BAB421FD0EB1A25D47E
:101BF0001F462B4B9D4223D90E9BED1A33D4AE4288
:101C00003BDCBE4231DC6D460FCD0FC495E80F00C2
:101C100084E80F0006E06D460FCD0FC495E80F0075
:101C200084E80F0019B0F0BD5B42CEE710AD0FCDD8
:101C30000FC495E80F0084E80F00F3E75B42D7E795
:101C40004023089363690D9308A92846FFF754FFC2
:101C50000E9BAB42D0D108AD0FCD0FC495E80F005D
:101C600084E80F00DEE76D42C9E710AD0FCD0FC469
:101C700095E80F0084E80F00D4E7AF4207DB08AD1A
:101C80000FCD0FC495E80F0084E80F00CAE710AD30
:101C90000FCD0FC495E80F0084E80F00C2E700BF26
:101CA00080778E0630B4054600231C2000E0013307
:101CB0001C2818D103EB430251000C4A0A44147942
:101CC000844210D003EB43014A0008498A5AAA42D1
:101CD000EDD803EB43025100044A0A445288AA4259
:101CE000E5D32046E4E730BC704700BFDC3E001A75
:101CF00082B04FF47A7301930D4A936923F0020185
:101D000092698A4201D00A4A916123F00303094A89
:101D10001168094A914201D943F00403044A9361CE
:101D2000019B5A1E0192002BFAD102B0704700BFEE
:101D300000000540443E001AFF2C31011230054BD3
:101D400053F8200010F0010F02D1C0F30460704777
:101D5000112070470000054000F11202034B53F8B8
:101D60002220034B185C00EA9200704700000540F7
:101D7000D43E001A08B510280AD8DFE800F0440B5A
:101D80000D18210924272A2D09093034383C400038
:101D900000203AE01E4838E01E4BD3F82C3103F007
:101DA0000703042B01D01C482FE000202DE0194B25
:101DB000D3F82C3103F00703042B27D0164824E076
:101DC000164B186821E0164B18681EE0154B186872
:101DD0001BE0144B586818E000F068F815E000218B
:101DE00000F09AF811E0012100F096F80DE00221D0
:101DF00000F092F809E0032100F08EF805E00421DC
:101E000000F08AF801E04FF4004008BD0648FCE706
:101E1000001BB7000030044040787D01183E001AD6
:101E2000443E001A9805001080F0FA0238B50546C5
:101E30000C460879FFF79EFF6061194B2B44194A45
:101E4000934221D818B3802323600023A360E3606A
:101E5000B5FBF0F32361144A954203D903FB00F06C
:101E6000A84207D021462846FFF796FEA3688BB10B
:101E7000013BA360236983B1E2680AB1013AE260E1
:101E8000013B2361002038BD4FF0FF30FBE74FF0EE
:101E9000FF30F8E74FF0FF30F5E74FF0FF30F2E7A3
:101EA000103A6BFF1005940BFF5E4C0930B583B000
:101EB000174D6C6CC4F30360FFF75CFF154B1B6898
:101EC00001932B6C13F0010F20D0C4F30743C4F32C
:101ED0000132C4F30121C4F38015013301320DF145
:101EE000080C614411F8041C14F0800F08D13DB9AE
:101EF0004900B3FBF1F3B0FBF2F000FB03F003E0A9
:101F0000B0FBF2F003FB00F003B030BD0020FBE7B4
:101F100000000540D03E001A38B50C460846FFF7D1
:101F20000DFF05462046FFF717FF04462846FFF73A
:101F300021FF0134B0FBF4F038BDFFFF30B400F1F5
:101F40001604A40004F1804404F5A02464681B284E
:101F500013D811291AD00E4D25400AB145F4006559
:101F60000BB145F0010545EA01651630800000F12E
:101F7000804000F5A020456008E044F001041630E0
:101F8000800000F1804000F5A020446030BC704724
:101F9000FEF7FFE01B280CD81630800000F18040CF
:101FA00000F5A020406810F0010F04D1C0F30460D8
:101FB0007047112070471120704708B5FFF7EAFFFE
:101FC000FFF7D8FE08BDFFFF71B901210AB141F04A
:101FD0000401022B0AD0B0F5A17F0AD3A0F59170BD
:101FE000064B43F8301070470321EFE741F0200122
:101FF000F1E72030024B43F83010704700200540D5
:1020000000100540B0F5A17F09D3094AA0F59170F1
:1020100052F8303043F0010342F830307047054A3F
:10202000203052F8303043F0010342F8303070472E
:10203000002005400010054010B5B0F5A17F09D380
:10204000A0F591730D4A52F8334014F0010F07D1F7
:10205000002010BD00F12003094A52F83340F4E794
:10206000FFF720FEFFF7A9FF14F0E00F03D10123D3
:10207000B0FBF3F0EDE70223FAE700BF00200540D4
:10208000001005407047FFFF70B58AB005460E4648
:1020900014464CF250330993062818D0002301222D
:1020A00029460420FFF74AFF4A4A536C43F00103D4
:1020B00053648DF8085001A93046FFF7B7FE464B30
:1020C0009E4216D9019B13F0400F03D0FEE7FFF7A5
:1020D0000FFEE3E713F0800F05D023F08003019398
:1020E0000025012607E0049B013304930125002607
:1020F00001E000252E469DF80820019B43EA02637B
:10210000059A43EA0243039A43EA0233049A43EAF4
:10211000022343F400632F4A53642E4B1B6C13F0CD
:10212000010FFAD00023012209210420FFF706FF46
:1021300006B34CF250330993099B5A1E0992002BA7
:10214000FAD1019B43F0800301939DF8082043EAF4
:102150000263059A43EA0243039A43EA0233049A6C
:1021600043EA022343F400631A4A5364002C2ED13D
:102170000AB070BD002DF9D04CF250330993099B81
:102180005A1E0992002BFAD1049B5A1E04929DF804
:102190000810019B43EA0163059943EA014303994F
:1021A00043EA013343EA022343F40063094A5364D8
:1021B000DCE70A4800EB8401CB788A78497810F88C
:1021C0002400FFF7BBFE0134112CF2D9D0E7002424
:1021D000FAE700BF0000054080778E06483F001AEE
:1021E000034B984201D083207047A520704700BF61
:1021F00000500C40044B984202D040F2022070473D
:102200004FF4F170704700BF00500C40036823F496
:102210007F43090289B2194301600261704770B5BA
:1022200006460D46FFF7E6FFFFF706FF02224FF0D6
:10223000FF33002100E02146AB420BD94C1C02FBCE
:1022400004F3B0FBF3F39D42F6D2FF2CF3D9023234
:102250000021F1E73046FFF7D9FF70BD10B5044605
:10226000FFF7BEFFFFF7CEFE2046FFF7C3FFFFF7E5
:10227000C9FE636823F004036360236823F0FF034F
:1022800043F00703236002492046FFF7C8FF10BD53
:10229000A0860100012909D1C0EBC0008200044BD7
:1022A00013441A69137DDBB2042BFBD0704700BFC7
:1022B0000000001070B50546064EC400221A9300B7
:1022C00033449888FFF79EFE641BA300F3586C22EA
:1022D0009A6170BD000000102DE9F0410C460B4ED4
:1022E000C5002B1A4FEA830806EB08039888FFF70E
:1022F000A3FEB0FBF4F056F8083042081A6156F815
:1023000008301A69801A5861BDE8F0810000001099
:1023100008B50B4A0B4B9A6003F50C731B6903F469
:102320007F63202B04D0FFF7A5FAFFF72BFA08BD37
:10233000044AD2F8883043F47003C2F88830F2E7D8
:102340000000001A00ED00E0044B1860044A136816
:1023500043F0010313600120704700BF38000010F4
:10236000001000E070B5044600EB40029300224AE2
:10237000D6587569EDB215F0010F0AD028B91F4B78
:102380001B6813B11E4A10689847032C14D0052C03
:102390001AD015F0200F0ED0736813F0020F0AD078
:1023A0002CB9184B1B6813B1174A10689847032CB7
:1023B00012D0052C18D070BD144B1B68002BE6D032
:1023C000134A10689847E2E7124B1B68002BE0D0D5
:1023D000114A10689847DCE7104B1B68002BE8D0C7
:1023E0000F4A10689847E4E70E4B1B68002BE2D0B9
:1023F0000D4A10689847DEE7903F001AA0050010CC
:10240000A4050010B8050010BC050010A8050010B8
:10241000AC050010B0050010B4050010C005001098
:10242000C4050010C8050010CC05001041B300EB36
:1024300040039A001E4B134493F90A30002B18DB1B
:1024400003F1604303F56143A02283F8002300EB0E
:1024500040008200164B134493F90A30002B25DB11
:1024600003F01F015B0901228A40124941F8232031
:10247000704703F00F03104A1A44A0231376E6E7CF
:1024800000EB400082000A4B134493F90A30002B02
:102490000CDB03F01F015B0901228A402033054950
:1024A00041F82320BFF34F8FBFF36F8F704700BFFA
:1024B000903F001A00E100E0FCEC00E010B461B1D4
:1024C00001291CD1DAB101282CD9C11EC9B20129B8
:1024D0002DD9052830D0022309E082B1012811D975
:1024E000C11EC9B2012912D9052815D0052300EB58
:1024F0004000820013498A5851680B4353605DF8CD
:10250000044B704710490A6010490B60E8E7104916
:102510000A6010490B60E7E70F490A600F4A136031
:102520000523E4E70E490A600E490B60CDE70E492A
:102530000A600E490B60CCE70D490A600D4A136032
:102540000223D4E7903F001AA0050010A405001054
:10255000A8050010AC050010B0050010B40500106F
:10256000B8050010BC050010C0050010C40500101F
:10257000C8050010CC05001000EB40008300034AA2
:10258000D358586900F02000704700BF903F001AF0
:1025900000EB40008300024AD3581868C0B270476D
:1025A000903F001A00EB40008300024AD3581960A4
:1025B000704700BF903F001A2DE9F84380468946D6
:1025C000194C45002A189300E618E7583846FFF7DB
:1025D0006DF949463846FFF793F90723BB603B681E
:1025E0000123FB6530797379B27942F018020F4903
:1025F00003EB401341F82320F079337A727A42F0EA
:10260000D00203EB401341F82320B8F1010F01D0B1
:10261000BDE8F883064AD36C43F03003D3641A2232
:10262000C1F80823F4E700BF903F001A006008409B
:102630000010084038B504460D462046FFF79CFFC1
:102640000028FAD029462046FFF7ACFF38BD38B540
:1026500005460C46217821B12846FFF7EBFF0134EF
:10266000F8E738BD08B50320FFF77CFE08BD08B5C4
:102670000520FFF777FE08BD30B1054A1060012044
:1026800021B1044B196070470020F9E70020704722
:10269000E0050010D005001018B1044B07221A60A5
:1026A0007047024B00221A60704700BF10E000E044
:1026B00038B550EA01042AD010F1FF3241F1FF335E
:1026C000002B08BF322A27D2144BC3E90001144B58
:1026D0001B68A3FB004503FB01554FF47A720023EE
:1026E0002046294600F082FA0138B0F1807F09D2F5
:1026F0000C4B58600C4AE02182F8231000229A60AB
:1027000007221A600120FFF7C7FF012038BD002013
:10271000FFF7C2FF0020F9E70020F7E740000010B4
:10272000F006001010E000E000ED00E008B5074AF8
:1027300013685168013341F1000113605160044B8B
:102740001B6813B1034A1068984708BDD8050010EC
:10275000E0050010D0050010FEE7704738B50024F2
:1027600001E00134E4B2032C12D865B2094B1A68B7
:1027700004F00F0101238B401A42F2D0064B53F8AC
:102780002430002098470123AB40024A1360E8E759
:1027900038BD00BF004008404800001038B5002494
:1027A00001E00134E4B2032C13D865B2094B1A6876
:1027B00004F00F0101238B401A42F2D0231D064A78
:1027C00052F82330002098470123AB40014A1360A0
:1027D000E7E738BD005008404800001038B5002435
:1027E00001E00134E4B2032C14D865B20A4B1A6834
:1027F00004F00F0101238B401A42F2D004F10803C8
:10280000064A52F82330002098470123AB40024A81
:102810001360E6E738BD00BF00300C4048000010F0
:1028200038B5002401E00134E4B2032C14D865B2B9
:102830000A4B1A6804F00F0101238B401A42F2D0B0
:1028400004F10C03064A52F8233000209847012374
:10285000AB40024A1360E6E738BD00BF00400C40C1
:102860004800001030B40B4D00EB80002C182856A7
:10287000087094F90110117094F902201A7094F9FB
:102880000320029B1A7094F90420039B1A7030BC39
:10289000704700BFD83F001A10F1020F00F0C78048
:1028A000B0F1FF3F00F0C58070B584B00C46002346
:1028B0008DF80F308DF80E308DF80D308DF80C300E
:1028C0008DF80B300DF10B03019303AB00930DF169
:1028D0000D030DF10E020DF10F01FFF7C3FF052CE3
:1028E00000F2A980DFE804F009812745630353481B
:1028F000FFF7C8FB012004B070BD9DF80F109DF8D4
:102900000E309DF80D2042F0D00203EB41134C49EC
:1029100041F823209DF80C309DF90B20012000FA8E
:1029200002F1464C03F5006354F8232022EA010229
:1029300044F82320DFE79DF80F109DF80E309DF836
:102940000D2042F0C00203EB41133D4941F8232022
:102950009DF80C309DF90B20012000FA02F1374C54
:1029600003F5006354F8232022EA010244F82320EF
:10297000C1E79DF80F109DF80E309DF80D2042F034
:10298000D80203EB41132E4941F823209DF80C3067
:102990009DF90B20012000FA02F1284C03F5006399
:1029A00054F8232022EA010244F82320A3E79DF8EB
:1029B0000F109DF80E309DF80D2042F0C80203EB79
:1029C00041131F4941F823209DF80C309DF90B203D
:1029D000012000FA02F1194C03F5006354F823209A
:1029E00022EA010244F8232085E79DF80F109DF8A4
:1029F0000E309DF80D2042F0D00203EB4113104938
:102A000041F823209DF80C409DF90B20012000FA8D
:102A100002F10A4B04F5006553F82560314343F891
:102A20002510D2B203EB44130021995463E7002030
:102A300070470020704700205DE700BF00400F4056
:102A40000060084010F1020F3CD0B0F1FF3F3BD0D6
:102A500010B584B00C462E2827D000238DF80B30FB
:102A60008DF80C308DF80D308DF80E308DF80F305C
:102A70000DF10F0301930DF10E0300930DF10D0302
:102A800003AA0DF10B01FFF7EDFE9DF80E309DF846
:102A90000F20003418BF01245B0103F1402303F52C
:102AA00070239C54012004B010BD2820FFF7CAFFFA
:102AB00021462920FFF7C6FF21462A20FFF7C2FF43
:102AC0000120F0E7002070470020704710F1020F4E
:102AD0002CD0B0F1FF3F2BD000B585B000238DF88E
:102AE0000F308DF80E308DF80D308DF80C308DF8DC
:102AF0000B300DF10B03019303AB00930DF10D03AC
:102B00000DF10E020DF10F01FFF7ACFE9DF90C3037
:102B10009DF80B205B0103F1402303F57023985CC3
:102B2000003018BF012005B05DF804FB012070479C
:102B30000020704708B5044B1B681B68DB68034A1C
:102B40001068984708BD00BFF4060010E4050010A7
:102B500008B5FEF7C7FF1A4B1868FFF7F5FB012011
:102B60000021FFF7A5FD05210020FFF795FE0021BC
:102B70002420FFF791FE00212520FFF78DFE002184
:102B80002620FFF789FE00212720FFF785FE01217F
:102B90002820FFF781FE01212920FFF77DFE01217A
:102BA0002A20FFF779FE01212B20FFF775FE012176
:102BB0002C20FFF771FE01212D20FFF76DFE08BDCF
:102BC000F006001008B50B46017011461846FFF7D5
:102BD000F3FC08BD08B5FFF73AFD08BD08B502498A
:102BE000FFF735FD08BD00BFC040001A53B94AB910
:102BF000002908BF00281CBF4FF0FF314FF0FF3005
:102C000000F074B9ADF1080C6DE904CE00F006F8DF
:102C1000DDF804E0DDE9022304B070472DE9F04758
:102C2000089E04468846002B40F085808A4215465F
:102C300048D9B2FA82F24AB1C2F1200701FA02F38E
:102C400020FA07F7954047EA030894404FEA154EEB
:102C5000230CB8FBFEF71FFA85FC0EFB178843EA2E
:102C6000084307FB0CF1994209D9EB1807F1FF3033
:102C700080F0E380994240F2E080023F2B445B1AEF
:102C8000A4B2B3FBFEF00EFB103344EA034400FB96
:102C90000CFCA44509D92C1900F1FF3380F0CB803E
:102CA000A44540F2C88002382C4440EA0740A4EB17
:102CB0000C0400271EB1D4400023C6E90043394666
:102CC000BDE8F087002A53D0B2FA82F2002A40F021
:102CD000B680491B4FEA154E1FFA85F80127B1FB54
:102CE000FEFC230C0EFB1C1143EA014308FB0CF114
:102CF000994207D9EB180CF1FF3002D2994200F249
:102D0000EC808446591AA3B2B1FBFEF00EFB1014FE
:102D100043EA044408FB00F8A04507D92C1900F148
:102D2000FF3302D2A04500F2DC801846A4EB080471
:102D300040EA0C40BEE78B4208D9002E78D000272D
:102D4000C6E9000138463946BDE8F087B3FA83F793
:102D50007FB98B4202D3824200F2BD80841A61EBBC
:102D6000030301209846002EA9D0C6E90048A6E733
:102D7000FFDEC7F12005BB4022FA05FC4CEA030C3C
:102D800001FA07F420FA05F821FA05F34FEA1C4E80
:102D900048EA0404B3FBFEF9210C0EFB19331FFAB9
:102DA0008CF841EA034309FB08FA9A4502FA07F254
:102DB00000FA07F10BD91CEB030309F1FF3080F097
:102DC00088809A4540F28580A9F102096344A3EB0B
:102DD0000A03A4B2B3FBFEF00EFB103344EA034433
:102DE00000FB08F8A04508D91CEB040400F1FF33F0
:102DF0006BD2A04569D90238644440EA0940A4EB8B
:102E00000804A0FB02894C45C6464B4654D351D01A
:102E1000002E69D0B1EB0E0264EB030404FA05F551
:102E200022FA07F3FC401D43C6E90054002746E799
:102E30003746304643E7184637E707461FE7C2F1F3
:102E4000200320FA03F7954001FA02F021FA03F378
:102E50004FEA154E3843010CB3FBFEF71FFA85F815
:102E60000EFB173341EA034107FB08F38B4204FAD8
:102E700002F407D9691807F1FF3C28D28B4226D902
:102E8000023F2944CB1A81B2B3FBFEF00EFB103394
:102E900041EA034100FB08F38B4207D9691800F1AE
:102EA000FF3C10D28B420ED902382944C91A40EA9D
:102EB000074714E74145ABD2B8EB020E69EB0C02B1
:102EC00001381346A4E76046F0E7184695E76746E1
:102ED000D8E781467BE7384645E7ACF1020C2B4446
:102EE00010E702382C4421E73746E8E6704700BF78
:102EF0008A892DE9F041054610070C4658D44B68E5
:102F0000002B05DC0B6C002B02DC0020BDE8F081FF
:102F1000E66A002EF9D0002312F480522F682B604D
:102F200032D0606DA3895A0705D56368C01A636BF8
:102F30000BB1236CC01A00230246E66A216A2846B8
:102F4000B047431CA38906D129681D2949D82A4ABC
:102F5000CA40D60745D500226260D90422692260A2
:102F600004D5421C01D12B6803B96065616B2F60E9
:102F70000029CAD004F14403994202D0284600F047
:102F80009DF900206063C1E7216A01232846B0470C
:102F9000411CC7D12B68002BC4D01D2B01D0162B90
:102FA00001D12F60B1E7A38943F04003A381ADE7CE
:102FB0000F69002FA9D093070E6808BF4B690F60F7
:102FC00018BF0023A6EB07088B60B8F1000F9CDD4B
:102FD00043463A46216AA66A2846B047002806DCDE
:102FE000A38943F04003A3814FF0FF308EE70744ED
:102FF000A8EB0008E9E700BF0100402038B50B69E5
:1030000005460C4613B90025284638BD18B183691A
:103010000BB900F087F8144B9C421BD16C68B4F9D3
:103020000C30002BEFD0626ED00704D4990502D487
:10303000A06D00F038F928462146FFF759FF636E6E
:10304000DA070546E0D4A3899B05DDD4A06D00F026
:103050002BF9D9E7054B9C4201D1AC68DFE7044B63
:103060009C4208BFEC68DAE7E440001A0441001A09
:10307000C440001A002310B50446C0E90033836041
:1030800081814366C281C0E9043383611946082205
:103090005C3000F00AF9054B6362054BA362054BF7
:1030A000E362054B2462236310BD00BFF539001AAB
:1030B000173A001A4F3A001A733A001A014900F001
:1030C000AFB800BFFD2F001A70B54A1E68255543E2
:1030D0000E4605F1740100F03FF9044640B10021AD
:1030E000C0E900160C30A06005F1680200F0DDF8C0
:1030F000204670BD014800F0D6B800BF00070010A0
:10310000014800F0D1B800BF00070010014800F0EE
:10311000CAB800BFFB060010014800F0C5B800BFE8
:10312000FB06001010B50446FFF7F0FFA3691BB1C2
:10313000BDE81040FFF7F0BFC4E912332365134B1D
:10314000134A1B68A262A34204BF0123A361204665
:1031500000F020F86060204600F01CF8A0602046D7
:1031600000F018F80022E06004216068FFF782FF99
:1031700001220921A068FFF77DFF02221221E068E9
:10318000FFF778FF0123A361D2E700BF2441001AB3
:10319000BD30001AF8B50746FFF7ACFF1E4B1E689E
:1031A000B36913B93046FFF7BDFF4836D6E901349D
:1031B000013B03D533680BB33668F7E7B4F90C501D
:1031C000D5B9164BE36004F15800656600F06AF863
:1031D000FFF796FF2560C4E90155C4E90455A561D0
:1031E0000822294604F15C0000F05FF8C4E90D559F
:1031F000C4E912552046F8BD6834D9E704213846A1
:10320000FFF762FF044630600028D5D1FFF778FF52
:103210000C233B60EEE700BF2441001A0100FFFFD2
:103220002DE9F8438046894600F14804002614B988
:103230003046BDE8F883D4E90175013F01D5246823
:10324000F5E7AB89012B07D9B5F90E30013303D06F
:1032500029464046C84706436835EEE770B50D4D30
:103260000D4C641BA4100026A64209D10B4D0C4C3A
:10327000FEF751F9641BA4100026A64205D170BDCB
:1032800055F8043B98470136EEE755F8043B98475C
:103290000136F2E75C41001A5C41001A5C41001AF9
:1032A0006041001A704770477047024403469342DA
:1032B00000D1704703F8011BF9E7FFFF38B5054659
:1032C000002945D051F8043C0C1F002BB8BFE4186E
:1032D00000F05EFD1F4A1368104633B96360146046
:1032E0002846BDE8384000F059BDA3420CD92168FA
:1032F0006218934204BF1A685B68636004BF521887
:1033000022600460ECE713465A680AB1A242FAD977
:1033100019685818A0420BD12068014458188242FD
:103320001960DDD1106852685A6001441960D7E70E
:1033300002D90C232B60D3E7206821188A4204BFEE
:1033400011685268626004BF091821605C60C7E7B9
:1033500038BD00BFE8050010F8B5CD1C25F0030509
:1033600008350C2D38BF0C25002D064601DBA9427F
:1033700003D90C2333600020F8BD00F009FD21497A
:103380000A6814469CB9204F3B6823B92146304651
:10339000FEF716F9386029463046FEF711F9431C4E
:1033A00023D10C233360304600F0F8FCE3E72368B8
:1033B0005B1B17D40B2B03D923601C44256004E04E
:1033C0006368A2420CBF0B605360304600F0E6FC1D
:1033D00004F10B00231D20F00700C21ACCD01B1AE9
:1033E000A350C9E722466468CCE7C41C24F0030458
:1033F000A042E3D0211A3046FEF7E2F80130DDD1D9
:10340000CFE700BFE8050010EC0500109368013B12
:10341000002B10B4936008DA9469A34201DB0A29F7
:1034200003D15DF8044B00F03FBB1368581C1060DB
:10343000197008465DF8044B7047F8B506460F460C
:103440001446D518AC4201D1002007E03A4614F8E2
:10345000011B3046FFF7DAFF431CF3D1F8BDFFFF35
:103460002DE9F04F0D469DB014461E46074618B193
:1034700083690BB9FFF756FE854B9D421BD17D68D2
:103480006B6ED90705D4AB899A0502D4A86DFFF7F6
:103490000AFFAB891B0701D52B69EBB929463846D2
:1034A00000F054FBC0B16B6ED8070ED54FF0FF3063
:1034B0001DB0BDE8F08F774B9D4201D1BD68DFE7BD
:1034C000754B9D4208BFFD68DAE7AB899905EDD4DD
:1034D000A86DFFF7E9FEE9E70023099320238DF8A3
:1034E0002930DFF8B891039630238DF82A304FF059
:1034F000010A23461E4613F8012B0AB1252AF9D1E9
:10350000B6EB040B0BD05B46224629463846FFF744
:1035100094FF013000F0A380099B5B44099333784A
:10352000002B00F09C8000234FF0FF32CDE90523F3
:103530000136049307938DF853301A9334460522CD
:1035400014F8011B554800F0D3FB049BC0B9DA0600
:1035500044BF20228DF85320180744BF2B228DF83A
:10356000532032782A2A13D0079A344600200A269C
:10357000214611F8013B303B092B4BD970B914E0BF
:10358000A0EB09000AFA00F0184304902646D5E79C
:10359000039A111D12680391002A01DB079204E0CF
:1035A000524243F002030792049323782E2B0CD14E
:1035B00063782A2B33D1039B1A1D1B680392002BBF
:1035C000B8BF4FF0FF3302340593354E2178032204
:1035D000304600F08DFB38B14023801B03FA00F029
:1035E000049B03430134049314F8011B2D488DF808
:1035F0002810062200F07CFB00283FD02A4B13BB8A
:10360000039B073323F0070308330393099B4344C9
:1036100009936EE706FB023201200C46A8E700235F
:103620000134059319460A26204610F8012B303A3A
:10363000092A03D9002BC8D00591C6E706FB012152
:1036400001230446F0E703AB00932A46174B04A975
:103650003846AFF30080B0F1FF3F8046D6D16B6EA5
:10366000D90705D4AB899A0502D4A86DFFF71CFED3
:10367000AB895B063FF51AAF099819E703AB0093D6
:103680002A460A4B04A9384600F088F8E3E700BF51
:10369000E440001A0441001AC440001A2841001AEC
:1036A0002E41001A3241001A000000003B34001A7B
:1036B0002DE9F04791461F468A680B69DDF82080A6
:1036C0009342B8BF1346C9F8003091F8432006462C
:1036D0000C4612B10133C9F800302368990642BF85
:1036E000D9F800300233C9F80030256815F0060516
:1036F00007D104F1190AE368D9F800209B1AAB42FC
:1037000028DC94F843302268003318BF0123920666
:103710002DD404F1430239463046C047013020D051
:103720002368E568D9F8002003F00603042B08BFDE
:10373000AD1AA36822690CBF25EAE57500259342FE
:10374000C4BF9B1AED184FF000091A344D451AD129
:10375000002008E00123524639463046C047013078
:1037600003D14FF0FF30BDE8F0870135C3E7E11822
:103770005A1C302081F84300224494F8451082F806
:1037800043100233C5E70123224639463046C0477D
:103790000130E6D009F10109D8E7FFFF2DE9F04338
:1037A00006460C4601F14300097E85B06E29984615
:1037B00017460C9B00F0BA8024D8632939D00AD868
:1037C000002900F0C380582900F0918004F14205DF
:1037D00084F8421035E0642901D06929F6D12568C2
:1037E0001A6815F0800F02F104012CD012681960DC
:1037F000002A03DA2D23524284F84330DFF8BCC19B
:103800000A233FE0732900F0A58008D86F2921D052
:103810007029DBD1226842F02002226003E0752982
:1038200018D07829D2D1782284F84520DFF890C1C9
:1038300061E01A68111D1960136884F8423004F1C0
:103840004205012393E01268196015F0400F18BF7C
:1038500012B2CDE7D4F800C01A681CF0800F02F154
:1038600004051D6001D0126803E01CF0400FFAD07F
:103870001288DFF848C16F290CBF08230A230021F2
:1038800084F843106568A560002DA2BF216821F06F
:10389000040121600AB9002D46D00546B2FBF3F1C0
:1038A00003FB112E93421CF80EE005F801ED39D907
:1038B000082B0BD12368DA0708D5236962689A427E
:1038C000DEBF302305F8013C05F1FF35401B2061C8
:1038D000CDF800803B4603AA21463046FFF7E8FEBC
:1038E000013049D14FF0FF3005B0BDE8F083DFF87B
:1038F000CCC084F845101D68216855F8042B1D6064
:103900000D060BD5CD0744BF41F0200121601AB947
:10391000236823F0200323601023B0E74B0648BF41
:1039200092B2EFE70A46B9E70546C1E71A68D4F84C
:1039300000C06169151D1D601CF0800F136801D067
:10394000196003E01CF0400FFAD0198000232361B6
:103950000546BDE71A68111D1960156862680021E7
:10396000284600F0C5F908B1401B60606368236118
:10397000002384F84330ABE723692A4639463046B2
:10398000C0470130AED023689B0713D4E068039B87
:103990009842B8BF1846A7E701234A463946304641
:1039A000C04701309ED00135E368039A9B1AAB42B1
:1039B000F2DCEBE7002504F11909F5E73941001ABB
:1039C0004A41001A0FB40A4B13B51C6824B1A3690D
:1039D00013B92046FFF7A6FB05AB049AA168019333
:1039E0002046FFF73DFD02B0BDE8104004B070472F
:1039F0008800001010B50C46B1F90E10FDF7A4FDBB
:103A00000028ABBF636DA3891B1823F48053ACBFA0
:103A10006365A38110BD2DE9F0411F468B89DB054D
:103A200005460C46164605D502230022B1F90E10B4
:103A3000FDF785FDA389B4F90E1023F48053A3810B
:103A400032463B462846BDE8F041FDF7A4BD10B51F
:103A50000C46B1F90E10FDF772FD431CA38915BF8A
:103A6000606523F4805343F48053A38118BFA3817E
:103A700010BDB1F90E10FDF74FBDF0B50C7864B173
:103A800003461A7818465E1C0AB9104605E09442AF
:103A900008D10D4615F8012F02B9F0BD13F8017FCA
:103AA0009742F7D03346ECE7F8B50E461446054684
:103AB00018B183690BB9FFF735FB214B9C422BD121
:103AC0006C68A369A360A3891A072FD523696BB318
:103AD00023692068C01A6369F6B28342374604DC62
:103AE00021462846FFF78AFA30BBA368013BA36052
:103AF00023685A1C22601E7063690130834204D01F
:103B0000A389DB0706D50A2E04D121462846FFF7F4
:103B100075FA88B93846F8BD0A4B9C4201D1AC68A9
:103B2000CFE7094B9C4208BFEC68CAE7214628460C
:103B300000F00CF80028CBD04FF0FF37EAE700BFC9
:103B4000E440001A0441001AC440001A324B70B518
:103B50001D6806460C4625B1AB6913B92846FFF728
:103B6000E1FA2E4B9C420FD16C68B4F90C309AB23A
:103B700015072CD4D00611D40922326043F040033B
:103B8000A3814FF0FF303EE0254B9C4201D1AC6851
:103B9000EBE7244B9C4208BFEC68E6E7510712D5DF
:103BA000616B41B104F14403994202D03046FFF702
:103BB00085FB00236363A38923F02403A3810023EF
:103BC000636023692360A38943F00803A381236909
:103BD0004BB9A38903F42073B3F5007F03D02146CA
:103BE000304600F045F8A28912F001030CD0002302
:103BF000A36063695B42A361236953B9B4F90C30D4
:103C000013F08000BAD170BD920758BF6369A360FA
:103C1000F2E70020F7E700BF88000010E440001A38
:103C20000441001AC440001A70B50E46B1F90E10D6
:103C3000002996B014461D4607DA00232B60B3898D
:103C40001A0610D44FF480630EE06A46FDF769FC53
:103C50000028F2DB019A02F47042A2F500535A42A6
:103C60005A412A60EEE740230020236016B070BD61
:103C70008B8973B59D0706460C4607D504F14703AB
:103C8000236023610123636102B070BD01AB6A460A
:103C9000FFF7CAFF009905463046FFF75DFB48B9BC
:103CA000B4F90C309A05EFD423F0030343F0020378
:103CB000A381E3E70D4BB362A389206043F0800347
:103CC000A381009B6361019B20615BB1B4F90E107D
:103CD0003046FDF72BFC28B1A38923F0030343F002
:103CE0000103A381A3891D43A581CDE7BD30001A3F
:103CF00001F0FF01102A2BDB10F0070F08D010F89D
:103D0000013B013A8B422DD010F0070F42B3F6D1A0
:103D1000F0B441EA012141EA014122F007047FF0B9
:103D200000070023F0E80256083C85EA010586EA10
:103D3000010685FA47F5A3FA87F586FA47F6A5FA4C
:103D400087F68EB9EED1F0BC01F0FF0102F0070258
:103D500032B110F8013B013A83EA010313B1F8D103
:103D60000020704701387047002D06BF35460338E4
:103D7000073815F0010F07D1013015F4807F02BF1D
:103D8000013015F4C03F0130F0BC0138704700BF6E
:103D90000148FFF788BA00BFFC0600100148FFF792
:103DA00083BA00BFFC060010554152545F4750498A
:103DB0004F20636F6E666967757261646120612070
:103DC0004244524154453A203131353230302E0090
:103DD00046656564696E67207061757365642E0061
:103DE00046656564696E6720726573756D65642EDE
:103DF00000FFFFFF5265636962696D6F73202725BD
:103E0000732720706F7220554152540D0A00000034
:103E10006665656400FFFFFF000000000004000805
:103E200000090109050005010502000E010B010C46
:103E3000030003030304050F05100305030603072E
:103E40000208FFFF001BB700010F01010200440040
:103E50000201440002024400020A4000020B40003A
:103E6000020C40000100500001015000010250000E
:103E700001065000060150000604500006055000DF
:103E8000060754000608540006095000060A5000B0
:103E9000060B5000060C50000F04F0000103D50083
:103EA0000104D50007011600070256000203520064
:103EB0000204520009055200090657000602570085
:103EC000C201A2018201620181008200A100A20060
:103ED00001020408030F0F0FFF00FFFF00000500A1
:103EE0000A00200024000900400040000500600096
:103EF000A6000400C000C3000200E000E0000100D2
:103F000000010001030020012001060040014001E2
:103F10000C0042014201190062016201130082019A
:103F200082011200A201A2011100C201C20110000F
:103F3000E201E2010F00020202020E00220222024E
:103F40000D00230223021C000001010009090100E9
:103F50000A09010001070101020901000609010027
:103F60000C0901010D0901000E0901000F090100F2
:103F700010090100110901001209010013090100D3
:103F800014110100191101001A1101001B11010087
:103F90000010084006040206050218000010084040
:103FA0000905070906071800002008400000000066
:103FB0000000190000100C400701060702061A0055
:103FC00000100C40010F010110011A0000200C40EC
:103FD0000203020204021B000401000201070500A3
:103FE000030D01050001080402000202040300029F
:103FF000030400000200070400030C030204050987
:104000000301040508020304050302040405040671
:104010000C000208060B000307060900030506074B
:1040200004050F0604000303040400020404050051
:1040300002050406000206040804050C040A04052F
:104040000E010300000A011400000F011200000D10
:10405000011100000C0110000003070700030F000E
:10406000010000010000000000060A000306060827
:1040700004051006050003040601000300040904FA
:10408000050D010400000B010F00000201000000FB
:1040900004010100000801020000090106000109F5
:1040A00002000405000201040501020204050202E7
:1040B0000A00000E020B00010B020C00010CFFFFB6
:1040C0000D0A0000000000000000000000000000D9
:1040D00000000000000000000000000000000000E0
:1040E00000000000000000000000000000000000D0
:1040F00000000000000000000000000000000000C0
:1041000000000000000000000000000000000000AF
:10411000000000000000000000000000000000009F
:10412000000000008C000010232D302B2000686C54
:104130004C006566674546470030313233343536CA
:104140003738394142434445460030313233343503
:0C4150003637383961626364656600FF31
:04415C00C717001A67
:08416000BCEAFF7F0100000032
:1041680000100A40220000009522001A00000000FA
:1041780000000000000000000000000000000E40E9
:10418800010000009522001A000000000000000055
:10419800000000000000000000CB280CFFFFFFFF1C
:1041A80001000000000000005B27001A5927001AD0
:1041B8005927001A5927001A5B27001A5927001A8D
:1041C8005927001A5927001A5B27001A5927001A7D
:1041D8005927001A5927001A5B27001A5927001A6D
:1041E8005927001A5927001A8C00001000000000F7
:1041F800E440001A0441001AC440001A00000000FC
:1042080000000000000000000000000000000000A6
:104218000000000000000000000000000000000096
:104228000000000000000000000000000000000086
:104238000000000000000000000000000000000076
:0C4248000000000000000000000000006A
:040000051A00148D3C
:00000001FF
